:020000040800F2
:1000000058250020E10100081F25000845230008AD
:100010001D25000811030008E14800080000000049
:100020000000000000000000000000002F25000874
:1000300015040008000000002D25000831250008E7
:10004000FB010008FB010008FB010008FB010008A0
:10005000FB010008FB010008FB010008FB01000890
:10006000FB010008FB010008FB010008FB01000880
:10007000FB010008FB010008FB010008FB01000870
:10008000FB010008FB010008FB010008FB01000860
:10009000FB010008FB010008FB010008FB01000850
:1000A000FB010008FB010008FB010008FB01000840
:1000B000FB010008FB010008FB010008FB01000830
:1000C000FB010008FB010008FB010008FB01000820
:1000D000FB010008FB010008FB010008FB01000810
:1000E000FB010008FB010008FB010008FB01000800
:1000F000FB010008FB010008FB010008FB010008F0
:10010000FB010008FB010008FB010008FB010008DF
:10011000FB010008FB01000821260008FB01000884
:10012000FB010008FB010008FB010008FB010008BF
:10013000FB010008FB010008FB010008FB010008AF
:10014000FB010008FB010008FB0100082125000855
:10015000FB010008FB010008FB010008FB0100088F
:10016000FB010008FB010008FB010008FB0100087F
:10017000FB010008FB010008FB0100080000000073
:10018000FB010008FB010008FB010008FB0100085F
:10019000FB010008FB010008FB010008FB0100084F
:1001A000FB010008FB010008FB010008FB0100083F
:1001B000FB010008FB010008FB010008FB0100082F
:1001C000FB010008FB010008DFF810D000F08EF8FA
:1001D00000480047495D0008AFF300805825002023
:1001E0000648804706480047FEE7FEE7FEE7FEE7D1
:1001F000FEE7FEE7FEE7FEE7FEE7FEE7CD250008A7
:10020000C90100082DE9F05F0546002092469B4693
:1002100088460646814640241BE02846414647461C
:10022000224600F053F853465A46C01A914110D363
:1002300011461846224600F03AF82D1A67EB0108DD
:100240004F4622460120002100F031F817EB00094B
:100250004E41201EA4F10104DFDC484631462A4607
:100260004346BDE8F09F40EA01039B0703D009E045
:1002700008C9121F08C0042AFAD203E011F8013B92
:1002800000F8013B521EF9D27047D2B201E000F8EB
:10029000012B491EFBD270470022F6E710B513462A
:1002A0000A4604461946FFF7F0FF204610BD202AF3
:1002B00004DB203A00FA02F1002070479140C2F1BD
:1002C000200320FA03F3194390407047202A04DBEF
:1002D000203A21FA02F00021704721FA02F3D040BF
:1002E000C2F120029140084319467047064C074D61
:1002F00006E0E06840F0010394E8070098471034F6
:10030000AC42F6D3FFF764FF506600087066000841
:10031000FEE700001F4B0020F0B51968890311D4D7
:10032000BFF34F8FBFF36F8F1B490860BFF34F8F31
:10033000BFF36F8F196841F400311960BFF34F8F1D
:10034000BFF36F8F1968C90323D412497031086055
:10035000BFF34F8F081F43F6FF7400680E4D103532
:10036000C0F34E31C0F3C90204EA4116104600BF83
:1003700046EA80772F60401EFAD2491EF4D2BFF3BE
:100380004F8F186840F480301860BFF34F8FBFF371
:100390006F8FF0BD14ED00E050EF00E070B5044643
:1003A0000020014604EB8102491C1029C2F8840494
:1003B000F8D300224FF40075A118521CAA4281F80C
:1003C0001C02F9D30121207040226070A170C4F892
:1003D000C4042176A271607684F81C0484F81D148C
:1003E000294684F81F0484F81E0404F11C00FFF75A
:1003F00053FF04F507702946FFF74EFF122104F260
:100400002640FFF749FF3E2104F58760FFF744FFD0
:10041000002070BD7047FEE7002200F001B8000028
:100420000E4B70B505469C7B0120022C15D29E7B9D
:10043000002403F10C009C559E7B03EB860675603F
:100440009D7B2A54987B421C9A733A232F2230308A
:1004500008704B7020468A70CC7070BD2811002047
:10046000002100F001B800000B49024610B58B7B5B
:100470000120002B0ED01278303AD2B201EB820369
:100480005C68002C06D00A440020586010738A7BF8
:10049000521E8A7310BD0000281100204FF0000288
:1004A00029B101291CD002291DD04FF440720F49F7
:1004B0000B6823F440730B600B6813430B600A68EE
:1004C000022303EBC00322F0F8020A600868184315
:1004D0000860086840F480300860BFF34F8F7047B1
:1004E0004FF48072E3E74FF40072E0E7103C024003
:1004F00009494FF480330A6843EA002322F440702C
:100500000860086840F00400086008681843086044
:10051000BFF34F8F70470000103C0240074A13683A
:1005200023F44073136013681360136843F00103EE
:1005300013600170BFF34F8F70470000103C024002
:100540000A4910B50C6824F440740C600C6844F43B
:1005500040740C600C6844F001040C600260BFF34E
:100560006F8F4360BFF34F8F10BD0000103C0240FF
:10057000084A136823F440731360136843F48073CC
:100580001360136843F0010313600180BFF34F8FC2
:1005900070470000103C0240084A136823F440737F
:1005A0001360136843F400731360136843F001038E
:1005B00013600160BFF34F8F70470000103C024092
:1005C000134914480A68920703D5826942F0200251
:1005D00082610A68D20603D5826942F01002826104
:1005E0000A68920603D5826942F0080282610A68AD
:1005F000520603D5826942F0040282610A6812063B
:1006000003D5826942F002028261F22008607047DD
:100610000C3C02400C110020124970B50546002028
:10062000886100F01BFB104C064609E0681C07D0EF
:1006300025B100F013FB801BA84201D9032070BD37
:100640002068C003F2D4206810F0F20F03D0FFF747
:10065000B7FF012070BD2068C00701D001202060D5
:10066000002070BD0C1100200C3C02400021A0F1C4
:1006700000634FF40042934227D31549014491424D
:1006800001D2012121E013490144914201D202210A
:100690001BE011490144914201D2032115E00F49A9
:1006A0000144B1F5003F01D204210EE00C4A4FF4A1
:1006B000802102448A4201D2052106E0094A104401
:1006C000884201D2062100E0072108467047000059
:1006D0000080FFF70000FFF70080FEF70000FEF744
:1006E0000000FCF70000F8F770B50B4E00210A4A35
:1006F0004FF0FF30351D103A141D3060231D31605E
:100700002860296010601160206021601860196005
:1007100000F060FD002070BD2038024070B5044636
:1007200000F09CFA0546601C02D00448007804449E
:1007300000F094FA401BA042FAD370BD5000002094
:100740002DE9F04704461F480F46017D012909D0D5
:1007500001214CF25039804601754846FFF75CFF95
:1007600018B12AE00220BDE8F0874FF0FF31396070
:100770002168154D012901D0666819E0207BFFF73B
:10078000B7FE4846FFF748FF296821F004012960B9
:1007900013E0217B3046FFF781FE4846FFF73CFF20
:1007A000296821F07A01296008B13E6005E0761CD5
:1007B000D4E901211144B142EBD8002288F8142079
:1007C000D1E700000C110020103C024003480168F2
:1007D00041F000410160002070470000103C0240E1
:1007E0002DE9F0471D4D074614461E468946287DD3
:1007F000012808D001204CF2503828754046FFF7F8
:100800000BFF18B126E00220BDE8F08737B1012FB9
:1008100009D0022F0CD0032F14D10EE04846E1B2CC
:10082000FFF77CFE0EE0A1B24846FFF7A1FE09E00B
:1008300021464846FFF7B0FE04E0224633464846CC
:10084000FFF77EFE4046FFF7E7FE05490A6822F003
:1008500001020A6000212975D6E700000C11002072
:10086000103C02400849002010B50A68002A09DA45
:10087000054A064B0C3A064C1360146009680029BF
:1008800000DA012010BD0000103C02402301674542
:10089000AB89EFCD2DE9F04FDFF82CE100224FF0CE
:1008A00001094FF00F0A00BF09FA02F401EA04033C
:1008B000A3427DD122F0030676444FEA827CD6F82B
:1008C00008784FEA1C7CDFF804810AFA0CFB4045EB
:1008D0000BEA070501D100272DE03D4FB84201D1B9
:1008E000012728E03B4FB84201D1022723E03A4FCD
:1008F000B84201D103271EE0384FB84201D1042786
:1009000019E0374FB84201D1052714E0354FB842FE
:1009100001D106270FE0344FB84201D107270AE082
:10092000324FB84201D1082705E0314FB84201D11A
:10093000092700E00A2707FA0CF7AF421ED12D4D18
:10094000D5F800C02F1D2CEA030CC5F800C03D6887
:10095000DFF8A0C09D433D600CF10C0CDCF800708A
:10096000ACF104059F43CCF800702F689F432F60C3
:10097000D6F8085825EA0B05C6F808580668032378
:10098000D7084FEA42084FEA427C03FA08F34FEADD
:10099000DC6C9E4306600AFA0CF500EB87073E6AA2
:1009A000AE433E62C5689D43C5604568A54300E00F
:1009B00003E0456084689C438460521C102AFFF465
:1009C00073AFBDE8F08F000000300140000002402E
:1009D0000004024000080240000C024000100240E7
:1009E0000014024000180240001C02400020024097
:1009F00000240240003C01402DE9F84FDFF80CB222
:100A0000012403254FF00F0A00220BF1040E00BF52
:100A10000B6804FA02F63340B34278D10F7907F03D
:100A20000307012F01D0022F1AD187684FEA42092C
:100A3000D1F80CC005FA09F827EA08070CFA09FCF6
:100A40004CEA070CC0F808C0476891F804C0B743E7
:100A5000CCF3001C0CFA02FC4CEA070CC0F804C0F2
:100A60000E79F643B6070BD0C6684FEA420C8F6882
:100A700005FA0CF826EA080607FA0CF73743C760B0
:100A80000E7906F00306022E12D1D6084FEA4278FC
:100A900000EB860600960F69D6F820904FEAD866DC
:100AA0000AFA06FCB74029EA0C063743009E376273
:100AB0000F7906684FEA420C07F0030705FA0CF8B5
:100AC00007FA0CF726EA0806374307604E6816F463
:100AD000403F1CD04E4E376847F480473760366839
:100AE00022F00308970706F480460096494E3F0F10
:100AF0004644B146D6F80868DFF81C810AFA07FCBC
:100B0000404526EA0C0603D14FF0000C41E076E0A8
:100B1000DFF808C1604502D14FF0010C39E0DFF881
:100B200000C1604502D14FF0020C32E0DFF8F4C0A2
:100B3000604502D14FF0030C2BE0DFF8ECC06045BC
:100B400002D14FF0040C24E0DFF8E0C0604502D190
:100B50004FF0050C1DE0DFF8D8C0604502D14FF022
:100B6000060C16E0DFF8CCC0604502D14FF0070C50
:100B70000FE0DFF8C4C0604502D14FF0080C08E078
:100B8000DFF8B8C0604502D14FF0090C01E04FF02A
:100B90000A0C0CFA07FC4CEA060CC9F808C84F68A6
:100BA000DBF80060FF0226EA030600D51E43774605
:100BB000CBF80060D1F804C0DEF800605FEA8C2C4E
:100BC00026EA030600D51E43DFF840C03E60ACF1C4
:100BD000040C4F68DCF80060BF0326EA030600D56A
:100BE0001E430A4FCCF80060083FD1F804C03E68AD
:100BF0005FEACC3C26EA030600D51E433E60521C49
:100C0000102AFFF405AFBDE8F88F0000083C014052
:100C1000443802400030014000000240000402401D
:100C200000080240000C0240001002400014024084
:100C300000180240001C0240002002400024024034
:100C4000426921EA02030A4043EA02418161704796
:100C50000AB1816170470904FBE700000148806820
:100C60007047000050000020D0F8000302F04FB899
:100C7000D0F8000302F055B8006803F045BB0068E7
:100C800003F046BB01EB410202EBC10100EB810026
:100C900090F86000704701EB410202EBC10100EBEC
:100CA0008100006D704710B5044690F8F8020128E5
:100CB00009D0012084F8F802206803F034FB0020FA
:100CC00084F8F80210BD022010BD2DE9FE4F044645
:100CD0009A46DDE90D6094F8F832DDF83090012B8A
:100CE0001ED001EB41034FF0010B03EBC10384F86D
:100CF000F8B2002504EB83035FEA026802F07F0C80
:100D000083F83D5083F838A0A3F8400083F83910E9
:100D100083F83F6083F83AC005D583F83BB004E020
:100D20000220BDE8FE8F83F83B5083F83C90534689
:100D3000CDF80090CDE90160206803F057FB84F8FE
:100D4000F852EEE7704700002DE9F00301EB410493
:100D50004FF0020604EBC104DDE9087500EB8404E2
:100D6000DDE906C984F83B20BCF1000F84F83F3070
:100D70000CD084F8426000BF4FF000056BB1012B2E
:100D80002FD0022B12D0032B16D10FE084F83D5048
:100D90004FF0030884F84280EEE7BCF1010F0BD15D
:100DA00052B9DFB9012284F8552003E0B2B194F8BA
:100DB0005420B2B184F84260C4F84490E76484F8E7
:100DC0006050256584F8391004F1380184F86150C9
:100DD000027C0068BDE8F00303F095BB94F8552051
:100DE000E7E784F84250E7E72DE9F041066804465A
:100DF000304603F094FA012875D1206803F0A8FC6E
:100E0000002870D0206803F0A3FC800203D521687D
:100E10004FF400104861206803F09AFCC00203D52B
:100E200021684FF480104861206803F091FC400174
:100E300003D521684FF080604861206803F088FC8A
:100E4000800702D5216802204861206803F080FCF9
:100E5000800015D521684FF000504861D6F8400455
:100E6000C0070DD11021304603F02EFA304603F0B2
:100E70000DFA2068012103F047FC2046FFF7F8FE39
:100E8000206803F065FCC00102D5204601F0C9F9D5
:100E9000206803F05DFC000705D5204600F0E1F86E
:100EA000216808204861206803F052FCC043C00656
:100EB0000CD42068816921F010018161204601F085
:100EC000FAF92068816941F010018161206803F01E
:100ED0003FFC800123D5206803F011FB0025074665
:100EE0004FF0010814E01AE005F00F0108FA01F0D4
:100EF00038420CD006EB4510D0F80005E9B20004EA
:100F0000204602D500F0F0FE01E001F042F86D1C31
:100F1000A068A842E8D821684FF000704861BDE899
:100F2000F08170B504008AB005D094F8F90200266B
:100F3000256818B107E001200AB070BD204684F88A
:100F4000F86200F02FF8032084F8F902E86BC0057E
:100F500000D42661206803F065F904F110016846A9
:100F600028220D46FFF77FF994E80F0003F004F9FB
:100F70002068012103F029FC282229466846FFF752
:100F800072F994E80F0003F05FFB012084F8F90286
:100F90000020D1E70248016821F08001016070471C
:100FA00034380240264830B587B0016841F001016D
:100FB0000160016801F001010591016841F0400103
:100FC000016000680221002200F040000590032328
:100FD0000A244FF4C0508DE81F001A486946FFF7F5
:100FE0000BFD0120184D4FF4005469460290CDE9E5
:100FF00000402846FFF700FD114A121D106840F01E
:101000008000106010680E4A00F0800005901432D5
:10101000106840F48040106010680022062100F43F
:1010200080400590432000F0F5F8432000F0E5F8FB
:10103000012221462846FFF70BFE07B030BD000015
:10104000303802400000024000180240D0F800038F
:1010500001F0FABED0F8000301F0FABE006803F018
:101060009BBBD0F8000301F0AFBE10B5044690F86A
:10107000F80201280DD0012084F8F802206801212F
:1010800003F0E8F8206803F0FBF8002084F8F80289
:1010900010BD022010BD10B5044690F8F8020128DA
:1010A00009D0012084F8F802206803F0BDFB00207D
:1010B00084F8F80210BD022010BD000002488168CB
:1010C000027811448160704750000020094810B533
:1010D000016841F400710160016841F480710160B0
:1010E000032000F0B7F80F2000F006F800F073F8C6
:1010F000002010BD003C024070B50D4D04464FF479
:101100007A700C4A29781268B0FBF1F0B2FBF0F06B
:1011100000F0E8FB48B9102C07D200222146501EEF
:1011200000F078F800206C6070BD012070BD0000F8
:10113000500000204C000020F0B5154C4378211DD4
:101140000A1D23600378F3B143680B60057BC67A00
:10115000817A437B2D07847B45EA0665C77B90F83F
:1011600009C0067A90F800E045EAC14040EA8340B1
:1011700040EA444040EA074040EA0C2040EA46008A
:1011800040EA0E0001E0002008601060F0BD0000A1
:1011900098ED00E0BFF35F8F044800210368034A25
:1011A00023F48033036070321160704724ED00E057
:1011B000074A40F00100064970321060086840F4A8
:1011C00080300860BFF34F8FBFF36F8F7047000010
:1011D00024ED00E07047704700280DDB410900F066
:1011E0001F028900012001F1E0219040C1F8800137
:1011F000BFF34F8FBFF36F8F7047002809DB4109A2
:1012000000F01F028900012001F1E0219040C1F8A7
:10121000000170470E4BF0B41B680D46C3F3022368
:10122000C3F10706042E00D90426191D072901D28F
:10123000002300E0DB1E012404FA06F19C40491E55
:101240002940641E994014402143F0BC03F049BB7F
:101250000CED00E0064900F0070210B54FF6FF0460
:101260000868044B204040EA02201843086010BD83
:101270000CED00E00000FA050248016841F48071BD
:1012800001607047007000402DE9F04705000F46EF
:1012900063D0444E306800F00F00B84209D2306885
:1012A00020F00F0038433060306800F00F00B84283
:1012B00053D128683C4C810712D5400703D52068DC
:1012C00040F4E05020602878000703D5206840F4FF
:1012D00060402060A968206820F0F000084320608A
:1012E0002878C0072AD0304968680839012810D00A
:1012F0000968022810D0890700292EDA216821F018
:10130000030101432160FFF7A9FC804641F28839BF
:101310000DE009688903EFE78901EDE7FFF79EFC1F
:10132000A0EB0801494502D90320BDE8F0876868B1
:10133000216801F00C01B1EB800FEFD1306800F0B3
:101340000F00B8420BD9306820F00F0038433060EE
:10135000306800F00F00B84201D00120E5E728789E
:10136000400705D5E968206820F4E0500843206074
:101370002878000706D52869216821F4604141EAF0
:10138000C000206000F0BCF82168084AC1F30311D6
:10139000515CC8400649086006480068FFF7ACFE8B
:1013A0000020C2E7003C024008380240E461000827
:1013B0004C000020540000202DE9F041FFF74EFCC6
:1013C0004A4C0546206840F00100206005E000BF5F
:1013D000FFF744FC401B022857D820688007F7D548
:1013E000206840F080002060FFF738FC3F4E054643
:1013F00008360020306041F2883704E0FFF72EFC09
:10140000401BB84241D8306810F00C0FF6D1FFF7FE
:1014100025FC0546206820F45020206005E000BF30
:10142000FFF71CFC401B64282FD820688003F7D4EA
:10143000FFF714FC0546206820F08070206004E06F
:10144000FFF70CFC401B02281FD820688001F7D44E
:10145000FFF704FC0546206820F08060206004E06F
:10146000FFF7FCFB401B64280FD820680001F7D46D
:10147000FFF7F4FB0546206820F08050206007E06D
:10148000FFF7ECFB401B642802D90320BDE8F08184
:1014900020688000F4D4154B1448154A1B1D134CCA
:1014A0000C301349103284341A60251D21602960E4
:1014B00002680E4922F4FE420260743102680D4B4C
:1014C00042F47F020260086820F0010008600868AA
:1014D00040F0807008600848036008480068FFF723
:1014E0000BFE0028D2D00120D0E7000000380240D7
:1014F000003000240024F4004C00002054000020A0
:10150000154910B51548096811F00C0213D04110A7
:10151000042A0FD0082A0ED10F4C241F22682368FA
:1015200002F03F025B0207D52068C0F38810A0FBE1
:10153000010106E0084610BD2168C1F38811A1FB36
:1015400000010023FEF75EFE2168C1F30141491C42
:101550004900B0FBF1F010BD083802400024F4004F
:101560002DE9F84F04004FF000076ED02078DFF827
:1015700068A3AAF10408C007A8F104054CD0DAF862
:1015800000105046C1F38101012908D00068C0F362
:10159000810002280AD1D8F80000400206D5286848
:1015A000800339D560680028DFD035E06068B0F589
:1015B000803F0BD010B1B0F5A02F11D0286820F4D7
:1015C00080302860286820F4802002E0286840F4F9
:1015D00080302860606890B1FFF740FB06460AE063
:1015E000286840F480202860F0E700BFFFF736FB52
:1015F000801B642872D828688003F7D50CE0FFF7B9
:101600002DFB064605E000BFFFF728FB801B642882
:10161000F0D828688003F7D42078800742D5DAF81C
:101620000010504611F00C0F08D00068C0F3810084
:1016300002280BD1D8F80000400207D428688007A0
:1016400018D5E068012800D114E041E1E0680028E5
:10165000286817D040F001002860FFF7FFFA06461F
:1016600005E000BFFFF7FAFA801B0228C2D82868FD
:101670008007F7D52069296821F0F80141EAC00008
:1016800028600FE020F001002860FFF7E7FA064627
:1016900005E000BFFFF7E2FA801B02281ED8286889
:1016A0008007F7D42078000729D58B4861696C3012
:1016B00000298146016812D041F001010160FFF765
:1016C000CDFA064605E000BFFFF7C8FA801B0228E6
:1016D00004D8D9F800008007F6D510E089E021F0A1
:1016E00001010160FFF7BAFA064604E0FFF7B6FA17
:1016F000801B02287DD8D9F800008007F6D4207816
:1017000040076BD5DFF8D09109F13809D9F800000E
:10171000C0000BD4D9F8001041F08051C9F8001076
:10172000D9F80000012700F0805000906B48016854
:10173000C90512D40168834641F480710160FFF746
:101740008DFA064605E000BFFFF788FA801B642883
:101750004FD8DBF80000C005F6D55F4EA0686836AC
:1017600001280AD008B1052811D0306820F0010006
:101770003060306820F0040002E0306840F0010082
:101780003060A068A0B1FFF769FA83460CE03068CA
:1017900040F004003060F0E7FFF760FAA0EB0B01C7
:1017A00041F28830814266D830688007F4D50EE077
:1017B000FFF754FA834607E0FFF750FAA0EB0B015E
:1017C00041F28830814256D830688007F4D42FB176
:1017D000D9F8001021F08051C9F80010A069C8B3F1
:1017E000DAF80010C1F3810102294BD002282868E1
:1017F00000E040E020F08070286003D0FFF72EFA70
:1018000004463BE0FFF72AFA064604E0FFF726FA13
:10181000801B02282FD828688001F7D4D4E90962F8
:10182000D4E907012E4B570894F82C20084303EB0A
:10183000074343EA8611084340EA026040F0005043
:10184000C8F80000286840F080702860FFF706FAAA
:10185000044606E03EE000BFFFF700FA001B022846
:1018600009D828688001F7D534E000BFFFF7F6F902
:10187000001B022802D90320BDE8F88F28688001E8
:10188000F4D427E00128D8F8000021D0E16900F461
:1018900080028A421CD1216A00F03F028A4217D19D
:1018A000626A47F6C0710140B1EB821F10D1A16A94
:1018B0004FF0FF3200F4403302EB5101B3EB014F24
:1018C00006D194F82C1000F07060B0EB016F01D0DD
:1018D0000120D1E70020CFE7083802400070004027
:1018E0000000FFFF401EB0F1807F10B501D3012042
:1018F00010BD4FF0E02460610F21601702F0F1FF8E
:101900000020A0610721216110BD7047704770471A
:10191000F0B590F83C20012A3BD01F4E012480F8FE
:101920003C40022280F83D2002681C4D5368B242C0
:10193000D2F808C001D0AA4203D14F6823F4700343
:101940003B430F6823F070031F4357600268B242A5
:1019500013D0B2F1804F10D0114B9A420DD0114BE1
:101960009A420AD0104B9A4207D0AA4205D00F4B98
:101970009A4202D00E4B9A4204D189682CF080031F
:1019800019439160002180F83D4080F83C100846E2
:10199000F0BD0220F0BD0000000001400004014045
:1019A0000004004000080040000C004000400140DE
:1019B0000018004010B5040003D094F83D0010B1A9
:1019C00007E0012010BD002084F83C00204600F014
:1019D00035F8022084F83D002068211D00F034FE17
:1019E000012084F8480084F83E0084F83F0084F821
:1019F000400084F8410084F8420084F8430084F8F1
:101A0000440084F8450084F8460084F8470084F8D0
:101A10003D00002010BD000000680649884207D143
:101A20000548016821F0100101603620FFF7D4BBA2
:101A300070470000001000404038024008B5154AC9
:101A40000168154891420ED1016841F00201016020
:101A500000680022072100F0020000901D20FFF71F
:101A6000D9FB1D2010E00D4A914211D1016841F0CF
:101A70001001016000680022072100F010000090B2
:101A80003620FFF7C7FB3620BDE80840FFF7B5BB9F
:101A900008BD000000040040403802400010004033
:101AA00090F83D10012901D001207047174A02210A
:101AB00080F83D100168CB6843F00103CB600068FB
:101AC000904214D0B0F1804F11D0114988420ED00D
:101AD000104988420BD01049884208D00F498842EB
:101AE00005D00F49884202D00E49884207D181684B
:101AF0000D4A1140062906D0B1F5803F03D0016898
:101B000041F0010101600020704700000000014029
:101B10000004004000080040000C004000040140A8
:101B2000004001400018004007000100016841F238
:101B30001113CA6822F00102CA6001680A6A1A42D7
:101B400007D10A6A9B101A4203D10A6822F00102E7
:101B50000A60012180F83D1000207047704770B581
:101B60000446006800250169C943890715D4C16886
:101B7000C943890711D4EA1E026101212177206837
:101B800080698007204602D0FFF7E8FF04E000F0FC
:101B9000A7F8204600F0A5F8257720680169C94319
:101BA000490717D4C168C943490713D402216FF00C
:101BB0000402026121772068806910F4407F20468A
:101BC00002D0FFF7CBFF04E000F08AF8204600F0D7
:101BD00088F8257720680169C943090716D4C168C8
:101BE000C943090712D404216FF00802026121776A
:101BF0002068C0698007204602D0FFF7AFFF04E0ED
:101C000000F06EF8204600F06CF825772068016936
:101C1000C943C90617D4C168C943C90613D40821EA
:101C20006FF01002026121772068C06910F4407FD4
:101C3000204602D0FFF792FF04E000F051F8204662
:101C400000F04FF8257720680169C943C90708D11A
:101C5000C168C943C90704D1891E0161204600F04B
:101C600041F820680169C943090609D4C168C9431C
:101C7000090605D46FF0800101612046FFF746FE9A
:101C800020680169C943C90509D4C168C943090667
:101C900005D46FF4807101612046FFF736FE20689D
:101CA0000169C943490609D4C168C943490605D435
:101CB0006FF040010161204600F015F820680169CD
:101CC000C94389060BD4C168C943890607D46FF09C
:101CD000200101612046BDE87040FFF718BE70BDCD
:101CE00070477047704770472DE9F05F06460068FF
:101CF0000C46074602F024FD41074FF0070804EBAD
:101D000044024FF0040902EBC40006EB800504D541
:101D100007EB4412C2F8089539E03068214602F01A
:101D20000FFDC0054FF0080A08D507EB44124FF429
:101D30008071C2F8081585F861A02AE03068214654
:101D400002F0FEFC000707D507EB44120621C2F89B
:101D500008A585F861101CE03068214602F0F0FC0F
:101D6000400509D507EB441209204FF48061C2F801
:101D7000081585F861000CE03068214602F0E0FCAF
:101D800000060AD507EB44128021C2F8081585F831
:101D900061802146306802F0C6FA3068214602F0C0
:101DA000CFFC80053068214606D502F0BCFA07EB6F
:101DB00044114FF4007056E002F0C2FCC0074FF02F
:101DC00000084FF0200B4FF0010A43D007EB4417F7
:101DD000C7F808B5306930B1D7F81015A86CC1F351
:101DE0001201401A286585F861A05246C5F85C804A
:101DF000C7F808A595F83F0030B1022804D00328A1
:101E00000AD0012808D013E03068214602F08BFA8E
:101E10001020C7F808050BE0D7F8000540F0005087
:101E2000C7F800052146304685F86020FEF78AFF96
:101E30003069012806D1B5F84010A86CB0FBF1F06C
:101E4000C00705D095F8540080F0010085F85400D3
:101E5000BDE8F09F3068214602F072FC800605D58F
:101E600007EB44115846C1F80805F1E730682146F0
:101E700002F066FC80074FF0050B56D507EB4412C5
:101E80000220C2F8080595F86110012917D006292B
:101E90001AD007291DD009291BD0052928D00329CC
:101EA00026D0042927D0082937D00229D0D000BF56
:101EB00095F8602021463046FEF744FFC8E785F8D4
:101EC000610085F860A0F3E785F8610085F860B0EF
:101ED000EEE7E96D85F86100491CE965022904D93E
:101EE000C5F85C8085F86090E2E785F860000BE05B
:101EF00085F86100DCE795F83F1085F8610085F80A
:101F0000600009B10229D3D1D2F8000520F0804049
:101F100040F00040C2F80005CAE7E96D85F86100AD
:101F200085F86090491CE965C2E73068214602F0F7
:101F300007FC40060ED507EB44134022C3F80825E2
:101F4000214685F861B0C5F85C803068BDE8F05F77
:101F500002F0E9B93068214602F0F2FBC00684D5F0
:101F600095F83F00032803D028B1022803D00CE0E5
:101F7000C5F85C8003E0C5F85C80306928B985F855
:101F800061902146306802F0CEF9102007EB441131
:101F900069E72DE9F05F064600680C46074602F047
:101FA000CFFB41074FF0040A04EB440202EBC400EC
:101FB00006EB800507D507EB44120721C2F808A5F8
:101FC00085F8611067E03068214602F0B9FB8006B1
:101FD0004FF000084FF0020B10D507EB4411202002
:101FE000C1F8080595F83D00012875D185F83D80B8
:101FF000032285F860B085F861204CE03068214606
:1020000002F09EFB800506D507EB44114FF40070EB
:10201000C1F808053FE03068214602F091FBC00797
:102020004FF0010914D0C5F85C802146306802F0F9
:1020300087FB400606D507EB441285F83D9040200B
:10204000C2F8080507EB44114846C1F8089520E09E
:102050003068214602F074FB40060ED5052285F853
:10206000612085F83D902146C5F85C80306802F01B
:102070005AF9402007EB44112CE03068214602F069
:102080005FFB00070DD507EB441208210620C2F8BC
:10209000081585F8610021463068BDE8F05F02F060
:1020A00042B93068214602F04BFBC00616D595F8C0
:1020B0003D20C5F85C8085F861A022B995F83C0008
:1020C00008B985F83D902146306802F02CF91020BF
:1020D00007EB4411C1F80805BDE8F09F30682146C0
:1020E00002F02EFB00061ED5306970B1E86D401C71
:1020F000E865022811D9C5F85C8052462146304671
:1021000085F860A0FEF71EFE09E0072085F8610053
:102110003068214602F007F901E085F860B08020C0
:1021200007EB4411D6E73068214602F009FB400571
:102130000BD5092085F861003068214602F0F3F8DC
:1021400007EB44114FF48060C4E73068214602F089
:10215000F7FA8007C0D507EB44125846C2F808B515
:1021600095F86110012917D003293BD004293CD0F0
:1021700005293AD006293DD0072901D00929ABD13C
:10218000E96D85F86100491CE965022938D9C5F86F
:102190005C8085F860A03DE095F83F1085F861000F
:1021A000022985F8609001D0032933D1306928B91C
:1021B00095F8550080F0010085F855003069012838
:1021C00028D1E96C31B3B5F840000144491EB1FB98
:1021D000F0F0C0071ED095F8550080F0010085F89A
:1021E000550017E085F8610014E085F8610085F876
:1021F00060000FE085F86100052185F8601009E0B6
:1022000085F86000D2F8000520F0804040F00040E2
:10221000C2F8000595F8602021463046FEF792FD91
:102220005AE77CB504680546D4F840040190D4F818
:10223000400420F02E0000900198800709D50198F5
:10224000C00702D02846FEF70FFD009840F00200BC
:1022500000900198000724D5009840F008000090F5
:10226000019840071AD5A869022803D0E868012818
:102270000CD00FE00198C0F341400228286803D039
:10228000012102F041FA05E00221FAE74EF6602052
:10229000C4F804042846FEF7DDFE02E02846FEF7F7
:1022A000D5FE01988006009802D540F020000090ED
:1022B000C4F840047CBD2DE9F04102460068016A83
:1022C000074601F00F06C1F34343022BC1F30A1581
:1022D00032D1002D30D006EB460101EBC60102EBF6
:1022E0008104616C002927D0D4E913322A449A4230
:1022F00024D82A4602F030FA616C07EB46102944D4
:102300006164216D29442165D0F81015B4F840208E
:10231000AA42C1F3C9410FD100290DD0D0F8001550
:1023200021F0804141F00041C0F8001594F85400BC
:1023300080F0010084F85400BDE8F081042084F8A6
:102340006000F9E7FEE7000070B5124C6568FFF722
:1023500033F8FEF7C9F900F087F80F48FFF7E6FBFE
:102360000D48FFF759FB0D48FEF714FE206880F377
:1023700008880B4A00204FF0E021131D1C60086103
:1023800048618861106840F000701060AC46BDE89C
:102390007040604700800008C010002070000020DE
:1023A00004ED00E02DE9F04125490022254802F026
:1023B00077FF00B1FEE72848012223A102F09CFF2D
:1023C00000B1FEE7FEF74EFA1D4D2349143DA870FB
:1023D000C968296269B338BB204805F11001FEF7CE
:1023E000AFF91F49002668704FF48068E9601D4FFF
:1023F000E96116E0124B42461A4917481B1D03F0CB
:102400009DF8002408E0E86900233A593044011996
:102410000220FEF7E5F9241DA8698442F3D306F5EE
:102420008066286A8642E5D3FEF7D0F90A4802F0B2
:1024300023FF0348FEF714F8BDE8F041FFF784BF1F
:10244000340000207403002066697265776172654C
:102450002E62696E00000000A8050020B010002068
:1024600000800008B00C002000B585B0142168463B
:10247000FDF712FF0548016821F0020101600448E0
:102480000621FEF707FA05B000BD00003038024013
:102490000004024000B587B014216846FDF7FCFE39
:1024A0000A48016841F0020101600068062101222A
:1024B00000F002000590002000916946CDE901205E
:1024C00003900348FEF798FA07B000BD3038024089
:1024D000000402403EB51048002442F2107140F260
:1024E000CF22009401940294C0E90241094B846117
:1024F000C0E90032FFF75EFA08B1FDF78CFF06482D
:10250000694600940294FFF703FA002801D0FDF712
:1025100082FF3EBD00100040C0100020FEE7704763
:102520000148FEF761BC0000700000207047704752
:10253000FEF7C4BDF0B593B030216846FDF7ACFEA0
:1025400014210CA8FDF7A8FEFEF796FE1D480168B1
:1025500041F080510160006800F0805011901A48ED
:10256000016821F4404141F4804101600068022487
:102570000122E10300F4404011900920CDE9052437
:10258000CDE900018B01684607A9042548260327E9
:1025900081E86800CDE90A47FEF7E2FF00B1FEE7F7
:1025A0004FF48052002010900F21CDE90E02CDE9AA
:1025B0000C1402210CA8FEF767FE002800D0FEE7ED
:1025C00013B0F0BD4038024000700040104A30B5F2
:1025D0001048146800210F4B44F470041460083351
:1025E00005680D4A0D4C45F001050560196003684A
:1025F000051D1340074A03600C322C600568E30593
:10260000034C25F480250560803C1160236030BDBB
:1026100088ED00E000380240FFFFF6FE1030002495
:10262000064810B5FFF79BFA05480168491C016090
:10263000BDE8104003480221FEF702BBC010002095
:102640004400002000040240F0B5274B4FF0804EBC
:10265000264D02689842264E264F274C09D07045D9
:1026600007D0A84205D0B04203D0B84201D0A04262
:1026700005D1D1F804C022F070024CEA020298425F
:102680001BD0704519D0A84217D0B04215D0B8421F
:1026900013D0A04211D0194DA8420ED0184DA84217
:1026A0000BD0184DA84208D0174DA84205D0174DA1
:1026B000A84202D0164DA84203D1CD6822F4407240
:1026C0002A434D6922F080022A43026098428A68B8
:1026D000C2620A68826201D0A04201D10969016325
:1026E00001214161F0BD00000000014000040040F4
:1026F00000080040000C0040000401400040014080
:10270000004401400048014000180040001C004007
:102710000020004000224FF6FF7310B500EB82044A
:10272000B4F8844424040BD49A4207D002F00F0377
:1027300041F4004100EB8300C0F88414D0B210BD16
:10274000521CD2B2102AE9D31A46F7E77FB501AE80
:102750001C4601250023009586E80E0002232A4628
:10276000214600F0A5FB04B0002070BD7FB51D46DA
:1027700090F81D34089C03B100240123CDE90031F9
:10278000CDE9022402232946002200F091FB04B087
:10279000002070BD10B500F0B3FA002010BD30B4B9
:1027A0008278012A07D10022022404740123437491
:1027B00042828182C282002230BC114600F00FB8F2
:1027C0007FB501AE1C4601250023009586E80E006A
:1027D0002A46214600F06CFB04B0002070BD70B5A5
:1027E0008378012504462846012B0BD0022B08D103
:1027F000204600F0E2F858B1032809D0022800D1A1
:10280000A57070BDA1600221A2812576A17070BD66
:10281000A5700021217670BD7FB51D4690F81D344E
:10282000089C03B100240123CDE90031002329468F
:10283000CDE902241A4600F03BFB04B0002070BD35
:102840001FB5002314460822CDE90031CDE902234B
:102850001A46214600F02CFB04B0002010BDFDF705
:102860005DBF70B500F58764002000EB800505EBC7
:10287000C00504EB4505EE7B0A358E4201D0FF29E9
:1028800009D1AE79964201D0FF2A04D1ED799D425B
:1028900006D0FF2B04D0401CC0B20228E5D3FF2095
:1028A00070BD102907D200EB8100B0F88414C1F389
:1028B0000E01C0F8841400207047F0B48578049CA1
:1028C000012D0FD141F080060674062542820321B6
:1028D0004574B1EB122F02D140F2094100E0002112
:1028E0008182C4822246F0BC1946FFF778BF0A886D
:1028F00003781A440A80017808447047F8B54FF409
:1029000000720D469142064600F11C0401D90320D5
:10291000F8BD0021234630460095FFF7CEFF002882
:10292000F6D12A4621463046BDE8F84001F0D6B837
:10293000F8B5B1F5007F0C46054601D90320F8BD76
:1029400005F50773284600211E464FF48072009457
:10295000FFF7B3FF0028F2D1224631462846BDE8F2
:10296000F84001F062B9F8B5B3F5007F1E46154690
:1029700017D8B5B141F44072009600F507730021F5
:102980001C46FFF79AFF00280CD16178032909D172
:1029900021788A1EB24200D816460021B2B2A41C89
:1029A00006E00320F8BD635C891C89B205F8013B91
:1029B0009142F8D300212970F8BD2DE9F84F017E2E
:1029C000044601204FF007080B26054609274FF063
:1029D000050A0C294FF00D0919D2DFE801F0AD0608
:1029E0000E25303B465F6B778293627904F11001CC
:1029F0002046FFF725FF022049E06179204600F0DC
:102A0000DFF9012804D004287AD0022878D093E096
:102A1000207CE18A00F0800019B1802839D10320A0
:102A200035E0802814D02DE0D4F8C404E08120469D
:102A30002379A289A168FFF7C3FE042027E021794A
:102A4000204600F0BDF9012802D005283CD050E016
:102A5000277671E0009020466379A289A168FFF78C
:102A6000DBFED4F8C404062121E06179204600F0A1
:102A7000A7F9012806D0052807D0022809D0042884
:102A80000AD059E084F8188056E00C2003252076FF
:102A900052E084F818A04FE0022531E000222379AB
:102AA00011462046FFF78CFED4F8C4040821217695
:102AB000E08141E02179204600F082F901281BD015
:102AC00004281DD0052837D1032535E000220090C9
:102AD000637911462046FFF79FFED4F8C4040A210B
:102AE000E5E76179204600F06BF9012804D002285F
:102AF000AED0042804D01FE0002584F818901BE015
:102B0000267619E0617E491CC9B26176022902D895
:102B10002076A07010E0D4F8D424062120469047F7
:102B20000026667661792046FFF7BBFE21792046B4
:102B3000FFF7B7FE022526702846BDE8F88F000093
:102B40002DE9FE430446407800254FF001080D278B
:102B50004646082804F507720CD2DFE800F0043579
:102B600047737A919DA408212046FFF7E1FE10B13A
:102B7000032818D0A2E094F81D14802294F82D04A4
:102B8000A07184F801800091CDE9015094F81C34C3
:102B90002046217900F097FFA07994F81D14009148
:102BA000CDE9015043E094F81E04401CC0B284F803
:102BB0001E04032818D861792046FFF772FE217998
:102BC0002046FFF76EFE59E012212046FFF7B0FEC7
:102BD000A8BB022047E000BF94F81E04401CC0B20E
:102BE00084F81E04032840D9277067E0012120469D
:102BF00001F0E7F910B1032822D05FE00220FFF7CF
:102C00002EFEA079032294F81D14434684F81C84F8
:102C100062708022CDE9001502902046217900F0F3
:102C200052FFA17994F81D04CDE90005029100221C
:102C300094F81C342046617900F045FF3EE00EE038
:102C400027702EE009212046FFF758FE38B90420EE
:102C500009E0B4F83A142046FFF750FE10B10328FB
:102C6000BAD02BE00520607028E061792046FFF79C
:102C700018FE21792046FFF714FE657025701DE0CF
:102C800094F8341406250AE0FF232046FFF76BFE74
:102C900038B1032805D011E094F835140725002930
:102CA000F2D165700AE094F8361431B1FF23204662
:102CB000FFF759FE08B1032800D100263046BDE8D1
:102CC000FE8370B504000E4618D084F8CC2400258D
:102CD000C4F87C54C4F8805404F58464FDF75EFBAA
:102CE000E57025706570A570A4F584640EB1C4F814
:102CF000D464204600F078F8002070BD022070BD3A
:102D000010B5D0F8D004FDF7CEFF002010BD002193
:102D1000012280F8202480F8211480F8221408462B
:102D2000704710B504460020012184F8211484F86E
:102D3000200484F82304204600F0B3F821792046CB
:102D4000FFF7AFFD61792046FFF7ABFD002010BD16
:102D5000064810B541B101224021FDF779FFC82096
:102D6000FDF7DCFC002010BD0022F5E70018024052
:102D7000D0F8D004FDF78FBF10B5D0F8D0040124EF
:102D8000FDF77DFF20B1012805D0022803D101E025
:102D9000002400E00224204610BD000001EB4102A7
:102DA000064802EBC10100EB810090F83B1011B125
:102DB00090F85400704790F855007047700000205C
:102DC000D0F8D004FDF75EBFD0F8C414491CC0F899
:102DD000C41401780B2905D1D0F87C14002901D046
:102DE000896908477047000070B504460F48002104
:102DF0004FF0A04602220161012306600B2501620B
:102E0000C0E90621C162C0F800434162C0E9025333
:102E1000C4F8D004FEF785F80448FDF72DFF0146FD
:102E2000204600F020F8002070BD00007000002057
:102E3000FEB508AF97E870008DE87000D0F8D004B8
:102E4000FDF743FF0020FEBD002180F823147047EA
:102E5000012180F82314704710B5D0F8D004FEF794
:102E6000FDF8002010BDC0F8C414704701EB410309
:102E7000074803EBC10100EB810090F83B1011B152
:102E800080F8542001E080F85520002070470000B1
:102E90007000002010B5D0F8D004FEF7E6F800204E
:102EA00010BD10B5D0F8D004FEF7F5F8002010BD25
:102EB0002DE9FF410DF1280898E8F0008DE8F000B9
:102EC000D0F8D004FDF740FF04B00020BDE8F08149
:102ED0000346D0F87C04C1694FF002002AB1012AF0
:102EE00005D189791846FFF75ABCC979FAE77047C6
:102EF000D0F87C040121064B044AC069C0E91523BF
:102F000080F8501080F8521000207047555342430B
:102F1000504030202DE9F84F0746D0F87C040125B9
:102F20004FF00B0A2E464FF00A0B4FF009094FF0F5
:102F30000708C46994F850000C2845D2DFE800F077
:102F4000D30611252E4852757EA8B0CC84F86110A6
:102F5000022084F850001F22009504F15401637987
:102F600059E061793846FFF72BFF012802D002288B
:102F70007ED03FE0E06D002829D094F86000000684
:102F800001D503204BE0052049E0237938466289CA
:102F9000D4F88C10FFF7DAFB042040E021793846A2
:102FA000FFF70EFF01284FD16289E06D90420CD9E6
:102FB000D4F88C10801A1144C4F88C10E0656CD0E1
:102FC00023793846FFF7C2FB8DE00020E06564E01E
:102FD0000095384663792289D4F88C10FFF7C6FB38
:102FE00006201CE061793846FFF7EAFE012804D08C
:102FF0000228C8D0052815D075E02289E06D9042DE
:10300000E3D9D4F88C10801A1144C4F88C10E06510
:1030100043D0009563793846FFF7A8FB63E084F856
:10302000500060E084F850B05DE023790D2204F197
:1030300078013846FFF78AFB0820F0E72179384607
:10304000FFF7BEFE012802D005281ED04BE084F811
:103050005050384684F85250D7F87C14CC69217906
:10306000FFF786FE0D280CD12049A06F884200E0B2
:1030700037E006D1A16DE06F884202D194F8840058
:1030800008B102262FE000262DE084F850902AE0B7
:1030900000223846FFF71CFF38B984F8508022E040
:1030A00001223846FFF714FF10B1042811D01AE0AE
:1030B00061793846FFF772FEC0F101006179C2B252
:1030C0003846FFF7D3FE217900223846FFF7CEFEBF
:1030D000DBE784F850A006E0384600F017F8060059
:1030E00001D184F850503046BDE8F88F5553425313
:1030F00030B4A1250574FE24447400220123C38248
:10310000428282821A4630BCFFF769BB21230374D6
:103110000021FF22427441820A468182C182FFF768
:103120005EBB70B5D0F87C140125CC69A17B21B1C0
:10313000022902D003292ED127E02146FFF7D8FF2C
:10314000032805464FF0000101D01DB123E0002502
:10315000217004E02078022801D9022201E02278BF
:10316000521C2270002002230BE000EB800202EBD5
:10317000C002401C04EB8202C0B282F8923082F896
:10318000C11022788242F0D805E00021FFF707FB4A
:1031900008B9E07BA073284670BD10B50346D0F88F
:1031A0007C041446C069A0F8F8101A780B2A01D0E4
:1031B000022010BD01EB810202EBC101342200EBC1
:1031C000810120469031FDF74EF8002010BD70B50A
:1031D0000546D0F87C040026C469617939B12846D7
:1031E000FFF7D8FA61792846FFF75BFB6671217912
:1031F00039B12846FFF7CEFA21792846FFF751FB6F
:103200002671D5F87C04C06920B102F051FCD5F8D4
:103210007C04C661002070BDFEB50546D0F87C0474
:103220005023062201792846FFF71BFBFF2806469C
:1032300023D0022E21D20146284600F0B7FEE0B985
:103240004FF48277384602F0FBFDD5F87C14041E5B
:10325000CC6112D039462046FDF71EF806EB8600F9
:1032600000EBC60005EB400090F84E140A0606D5A8
:10327000E171B0F85014618105E00220FEBDA1713A
:10328000B0F85014218190F856140A0604D5E17163
:10329000B0F85804608103E0A171B0F858042081AF
:1032A000002020736073A0732846A179FFF732FADB
:1032B00060712846E179FFF72DFA20712846FFF763
:1032C00017FEA27942B3208930B395F81D14022667
:1032D0000091CDE9016095F81C342846617900F031
:1032E000F2FBE279C2B16089B0B195F81D1400918A
:1032F000CDE9016095F81C342846217900F0E3FB04
:10330000217900222846FFF7B1FD61790022284685
:10331000FFF7ACFD0020FEBD0320FEBD2DE9F05FF0
:10332000D0F87C240026012107468B46D469207BF7
:1033300020B101287AD00A282DD119E1B4F8F8007B
:103340002278904273D288464FF0080900EB800142
:103350004FF0050A01EBC001022504EB810181F861
:103360009180B4F8F80000EB800101EBC00104EBA0
:10337000810292F8901009290DD2DFE801F0050CC6
:103380001F890DB20C0CDB00042082F89000D7F8E6
:10339000C404C4F800010EE1C1B238469F3200F007
:1033A00090F940B9B4F8F80000EB800101EBC000DF
:1033B00004EB8000B7E002287ED09AE0C1B2384624
:1033C00000F0BEFA10B1022832D092E0B4F8F80052
:1033D00000EB800101EBC00004EB800090F892103C
:1033E00011B180F8C18001E080F8C1600320B4F819
:1033F000F81001EB810202EBC10104EB810181F8BD
:103400009000B4F8F80000EB800101EBC00004EB81
:10341000800080F89160B4F8F80000EB800101EBC7
:10342000C00004EB800080F89260C4E0C1E09AE044
:10343000B4F8F80000EB800101EBC00004EB800061
:1034400090F89210022902D080F8C18001E080F843
:10345000C160B4F8F82002EB820303EBC20204EB74
:10346000820282F890A0B4F8F81001EB810202EB1E
:10347000C10104EB810181F89180B4F8F80000EB00
:10348000800101EBC00004EB800080F8925092E0D4
:10349000C1B23846943200F0C8F900288BD1B4F894
:1034A000F81001EB810202EBC10104EB810181F80C
:1034B0009080B4F8F80000E008E000EB800101EB38
:1034C000C00004EB800080F8916031E0B4F8F8109F
:1034D00001EB810202EBC10104EB810181F890A0B4
:1034E00069E0C1B238469C3200F0DCF920B1022814
:1034F00024D0042822D05EE0B4F8F80000EB80016C
:1035000001EBC00004EB800090F89C10062901D06C
:1035100002290BD1D7F8C41442F21072D4F800314A
:10352000C91A914202D280F8905044E080F890800D
:10353000B4F8F800401CA4F8F8003CE0B4F8F81027
:1035400001EB810202EBC10104EB810181F8909053
:10355000B4F8F80000EB800101EBC00004EB800040
:1035600080F8915027E0A4F8F8600A20207322E048
:10357000B4F8FA002278904217D200EB8001A4F848
:10358000F80001EBC000D7F8D42404EB800090F8D9
:10359000910040B1062138469047B4F8FA00401C2B
:1035A000A4F8FA0007E00221F5E7A4F8FA60217315
:1035B00001E04FF0000B5846BDE8F09F2DE9F843BD
:1035C000D0F87C2401EB810303EBC103012608271B
:1035D0003546D26902EB830494F89030052B1ED057
:1035E00000224FF00508062B02D0072B2BD108E054
:1035F000002300921A4600F0CEF807E002280BD014
:1036000014E0002300921A4600F0C1F90028F5D119
:10361000002584F8906016E084F8908013E004F1AF
:103620009C0200F03FF920B102280CD0042807D0FA
:1036300009E0022084F89060054684F8910002E0D9
:10364000022584F890702846BDE8F883F8B5044652
:10365000D0F87C040E46069DC069A0F8F81094F8D6
:10366000201461B321780B2929D106EB860101EBE7
:10367000C60100EB810090F8901001291FD10621AE
:1036800080F8901031462046009500F084F840F212
:103690007120D4F8C474454309E000BFD4F8C404D1
:1036A000C01BB0EB051F0AD894F8200438B131468E
:1036B0002046FFF783FF0128F0D00020F8BD02204C
:1036C000F8BD2DE9F0411746D0F87C2400254FF0D5
:1036D00001080226D46994F85220012A02D0022A55
:1036E00056D126E02420E065802284F860200A2656
:1036F00084F86260C4F863501223C4F8675049012B
:10370000A4F86B50022784F86330012684F8641013
:1037100004F1100C84F8655084F8665084F8670052
:1037200084F8685084F8508084F85270C4F88CC0D3
:103730002EE0FFF7EFFB06002AD122213846FCF7E6
:10374000ABFDD4F88C00007800F01F007870D4F83E
:103750008C00007840093870D4F88C00407800065E
:1037600002D587F8028000E0BD70102254F88C0F5B
:103770008168C7F80310C068C7F8070007F10C009C
:1037800021681031FCF76FFD2068006AC7F81D0042
:103790003046BDE8F0812DE9F04115460246D0F8EB
:1037A0007C041F46069EC469022094F85230012B07
:1037B00006D0022B37D1BDE8F0411046FFF7AABB77
:1037C00001EB810000EBC100802204EB80000A21A4
:1037D000B0F898007043E06504F1630084F860205D
:1037E00084F862101021FCF757FD282084F863004C
:1037F000290E84F865102A0C84F866202B0A84F8B8
:10380000673084F868504FEA162C84F86AC04FF08D
:10381000010E84F86B60022084F850E084F85200B6
:103820007046C4F88C70BDE8F08170B51646D0F8CB
:103830007C240125D46994F85220012A02D0022A5E
:103840002ED11AE00822E265802184F860100A2057
:1038500084F86200102104F16300FCF71DFD2523AC
:1038600084F86330012284F85020022184F8521039
:1038700004F11000C4F88C0012E0FFF74BFB0500C8
:103880000ED154F88C0F42884178037850BA61F316
:103890001F4040EA036030602068C08840BAB080B2
:1038A000284670BD2DE9F04115460246D0F87C044B
:1038B0000E46C469022094F85210012918D002293A
:1038C00014D131461046FFF725FB00280ED154F8DD
:1038D0008C1F897801F00F0129702168097B6970BC
:1038E0003A292168497BA97000D10420BDE8F08104
:1038F0000E25E565802184F860100A2084F86200B6
:10390000102104F16300FCF7C7FC032284F8632054
:10391000710184F86410002084F8650084F8660062
:10392000012384F86750022684F8680004F1100728
:1039300084F85030184684F85260C4F88C70D5E78B
:1039400070B50246D0F87C04C469022094F8523065
:10395000012B06D0022B19D1BDE870401046FFF7AD
:10396000D9BA0025E5650A2084F86200102184F8A0
:10397000605004F16300FCF78FFC012284F863506F
:1039800084F850200221104684F8521070BD2DE9B1
:10399000F04115460246D0F87C041F46069EC469D5
:1039A000022094F85230012B06D0022B37D1BDE80B
:1039B000F0411046FFF7AEBA01EB810000EBC10009
:1039C000002204EB80000A21B0F898007043E06503
:1039D00004F1630084F8602084F862101021FCF781
:1039E0005BFC2A2084F86300290E84F865102A0CF9
:1039F00084F866202B0A84F8673084F868504FEA10
:103A0000162C84F86AC04FF0010E84F86B60022017
:103A100084F850E084F852007046C4F88C70BDE819
:103A2000F08100207047D0F87C24D269A2F8F81009
:103A300000780B2808D101EB810000EBC10002EBFC
:103A4000800090F8910008B1002070470120704775
:103A5000F8B50446D0F87C040E46069DC069A0F86F
:103A6000F81094F8201461B321780B2929D106EBC2
:103A7000860101EBC60100EB810090F8901001294E
:103A80001FD1072180F89010314620460095FFF79E
:103A90007EFF40F27120D4F8C474454309E000BFB2
:103AA000D4F8C404C01BB0EB051F0AD894F8200456
:103AB00038B131462046FFF781FD0128F0D00020C3
:103AC000F8BD0220F8BDFEB508AF97E870008DE89C
:103AD0007000FFF7ADF90020FEBD00002DE9F74FA3
:103AE00082B04FF0000BD846029D05F5876501B303
:103AF000087809230C46092800D023704FF400767B
:103B000008782870487868704888B04200D33046FA
:103B100068800879092A2871487968718879A871BC
:103B2000C879E871207A28727DD99946ADF80030BD
:103B300062E0022005B0BDE8F08F69462046FEF73E
:103B4000D6FE04464078042853D12078092801D0B5
:103B500084F8009008EB880101EBC80005EB400AEF
:103B600020780AF10A068AF80A0060788AF80B00C1
:103B7000A0788AF80C00E0788AF80D0020790228F5
:103B800000D302203071617900277171A179B17180
:103B9000E179F171217A31721CE069462046FEF725
:103BA000A6FE04464078052814D17079012804D176
:103BB000B07902282ED003282CD0072084F80000EA
:103BC0000AEBC70102981431224600F06CF87F1C02
:103BD0008346FFB23079B84204D96888BDF8001036
:103BE0008842DAD83079B84211D808F1010000F0E3
:103BF000FF08B8F1020F04D26888BDF800108842AF
:103C00009BD82879022800D3022040450BD90320F5
:103C100090E708E0F0790028D2D120780928CFD0A9
:103C200084F80090CCE7584684E770B500F226434C
:103C30004FF0000541B30C7808261C704C785C707E
:103C40004C885C800C791C714C795C718C799C710E
:103C5000CC79DC7190F81D04C0B1012816D002287F
:103C60001DD00325082A0DD9088918814889588153
:103C700088899881887B9873C87BD873087C18746E
:103C8000487C5874284670BD022070BD082CE9D0CD
:103C9000102CE7D0202CE5D0402C02D1E2E7082CF4
:103CA000E0D0DE71DEE7F0B513784FF480660B707C
:103CB0000546537877104B70002093788B70D4783A
:103CC000CC7093888B8092798A711BB1B34201D8F2
:103CD000BB4200D9032095F81D1421B101291AD047
:103CE00002292DD00DE004F00301022907D0A50719
:103CF00009D001290AD0E143890707D001E0BB427E
:103D000000D90320F0BD402BFBD8F0BD002AF8D02D
:103D1000102AF6D8F0BD04F003010229F3D0A5075C
:103D2000F1D0012907D0E1438907EAD1002AE8D080
:103D3000B342E6D2F0BD002AE3D0102AE3D9E0E78F
:103D4000A10707D0E1438907DBD1002AD9D0082B8E
:103D5000D7D8F0BD082BD4D1F0BDFEB50221044662
:103D600000208DF8001094F82124012A01D10322AB
:103D7000227022780D26082700250C2A17D2DFE8AA
:103D800002F0061734E4FE69C87C848CA1DD94F847
:103D9000200400280BD001202070C820FEF75FFD12
:103DA0002046FFF759F884F81C54C4F8C854E6E0DC
:103DB00094F8230401280DD0D4F8C804B0F57A7F14
:103DC0000CD994F81F04401CC0B284F81F040328C7
:103DD00077D874E084F81F542170D0E00A30C4F81A
:103DE000C8040A20FEF73BFDC9E0D4F8D42412B180
:103DF0000421204690476420FEF731FD2046FEF75F
:103E0000BBFF84F81D040521217000212046FEF728
:103E100081FC802160712046FEF77CFCA37901467D
:103E200094F81D242071204600928022CDE9015390
:103E300094F81C34FFF747FEA179002294F81D0482
:103E4000CDE900050291204694F81C346179FFF712
:103E50003AFE94E02046FEF773FE8DF800009DF8D0
:103E60000000002808D194F8370484F8245401286D
:103E700001D007205EE0277081E0D4F8D424002A26
:103E80007DD0012120469047F5E794F83D14204667
:103E900000F0A5F8E0BB09204CE094F83F040A25A7
:103EA00080060CD50121204600F0A7F88DF800000F
:103EB0009DF8000018B19DF8000003285FD125701F
:103EC0005DE039E0D4F8801411B394F84714C4F8D5
:103ED0007C5404EB8002D2F8782412798A4206D10D
:103EE00004EB8000D0F87804C4F87C0404E0401CA3
:103EF00010F0FF00EDD02846F0B1816820468847D9
:103F0000D0B906202070D4F8D4240321204690474D
:103F100035E0D4F87C0478B10169204688478DF8F3
:103F200000009DF8000020B19DF80000022803D099
:103F300025E00B20207022E0267020E0D4F87C04DD
:103F4000E8B141692046884719E084F821542046A9
:103F5000FCF724FAD4F87C0420B1C16820468847D5
:103F6000C4F87C54D4F8D42412B1052120469047DB
:103F700094F82204012804D02046FEF78BFF00208D
:103F8000FEBD84F82254204600F045F8F7E74FF0D4
:103F9000000211B1D0F8803413B1022210467047EC
:103FA0000123C0F88034C0F87814F7E790F83C3467
:103FB00000228B4202D980F8241400E0022210462D
:103FC00070478278012A06D10022027405234374C7
:103FD00041828282C28200221146FEF700BC8278B2
:103FE000012A06D10022027409234374418282828D
:103FF000C28200221146FEF7F2BB8278012A06D166
:10400000002202740323437441828282C28200220E
:104010001146FEF7E4BB10B50446FEF73BFF012155
:104020002046FEF795FE002010BD0000012910B5C6
:1040300010D0094C02290BD005290BD1FEF784F9C9
:1040400000202070BDE8104004A1024601F028B90C
:104050000120207010BD00002000002000000000A2
:104060000020704730B58DB015464FF0010449B1BE
:10407000012909D0022910D0032919D004240DB038
:10408000204630BD0024FAE76A4601460F48FFF794
:1040900084F80028F3D1019808E06A4601460B48ED
:1040A000FFF77BF80028EAD1BDF8080000240AE0F9
:1040B0006A4601460548FFF770F80028DFD1BDF8D1
:1040C00008000024400A2860D9E70000D807002033
:1040D00030B58FB00546012400930B4601460C48CD
:1040E000FFF7B4FA68B10A4801AA2946FFF755F864
:1040F0009DF81100042806D0282804D03A2803D1BE
:1041000001E0002400E003240FB0204630BD000091
:10411000D807002010B5012401460348FFF783FCAF
:1041200000B10024204610BDD807002030B58FB064
:104130000546012400930B4601460E48FFF788FC14
:1041400078B10C4801AA2946FFF727F89DF811001D
:1041500004280AD0272806D0282806D03A2805D1D6
:1041600003E0002402E0022400E003240FB0204614
:1041700030BD0000D807002070B504460698049DA5
:104180000D99012815D0E06840F04000E06020461D
:1041900000F028F8A16B41F48031A163012D07D113
:1041A000A16841F00601A160A16841F02001A16071
:1041B00070BDA06B01290A4A20F48030A063E0683A
:1041C00000EA0200E060E06820F44010E06003D103
:1041D000E06840F48010E060204600F003F8DDE77E
:1041E000BFFFBDFF08B50E4900220092009B5B1C7B
:1041F00000938B420CD80369002BF7DA0092026916
:1042000042F001020261009A521C00928A4201D9D6
:10421000032008BD0269D207F5D1002008BD0000C7
:10422000400D0300816821F001018160002070478A
:1042300000EB4110064AC0F81025D0F8001521F017
:10424000804141F00041C0F8001500207047000097
:104250000000088008B5D0F8402422F02E02009219
:10426000D20405D4012909D1009941F4805103E019
:1042700021B9009921F48051C0F84014002008BDF4
:10428000816841F0010181600020704708B50D4947
:1042900000220092009B5B1C00938B420AD80369AA
:1042A000002BF7DA009210230361009A521C00924F
:1042B0008A4201D9032008BD0269D206F5D4002044
:1042C00008BD0000400D030018B50E4A00230093FE
:1042D000009C641C009494420CD80469002CF7DA0A
:1042E0002024009344EA811101610099491C009146
:1042F000914201D9032018BD01698906F5D4002037
:1043000018BD0000400D0300D0F8080480B27047CB
:1043100008B5D0F840040090C0F3414008BD4069A2
:1043200000F00100704718B500EB41110022009227
:10433000D1F80025D1F800358468C2F381424FEAF4
:10434000D373A40600D51BB34FF47A736AB1022A63
:104350000BD0D1F8002542F08042C1F80025D0F8FA
:10436000100410F47F0F2BD00CE0D1F8002542F0A0
:104370008042C1F800258268920609D4C06A10F410
:104380007F0F07D0D1F8000540F00040C1F80005CC
:10439000002018BDD1F8000520F00040C1F800054C
:1043A000D1F8000540F00040C1F800050098401C1D
:1043B00000909842ECD8D1F800050028F6DBE7E73A
:1043C000D1F8000520F00040C1F80005D1F8000543
:1043D00040F00040C1F800050098401C0090984251
:1043E000D6D8D1F800050028F6DBD1E72DE9F04753
:1043F00000EB411499464FF0FF334FF00006DDE922
:104400000885DDF828A0C4F8083515B3012D3BD088
:10441000022D1ED0032D30D05FF00106D4F80C35EC
:1044200001F00F0701215FEA026C01FA07F143F086
:104430000203C4F80C35D0F8183443EA0103C0F87D
:104440001834816941F0007181612AD54FF400412F
:1044500028E0170640F29D43C4F80C3505D500BF8F
:10446000D4F80C3543F4807318E0C36BDB05D5D565
:10447000D4F80C3543F0600310E0170640F29D635A
:10448000C4F80C35ECD4C9E7170640F22523C4F86C
:104490000C35C3D5D4F80C3543F4C073C4F80C35CF
:1044A000BCE70021FFF734FFB8F1020F04D1022866
:1044B00002D04FF4003300E000234FF4F0474FF0F8
:1044C000FE5807EAC22208EA895010434FF4402CF4
:1044D0000CEA85473843CAF30A02104308431843DD
:1044E000C4F80005032D01D0012D05D1D4F8000535
:1044F00040F00050C4F800053046BDE8F087D0F821
:10450000140480B27047F8B5C56B4FF480734C78D3
:10451000ED0515D50D799DB9012A01D06AB10FE0DD
:10452000CD790DB1022D0BD100EB4415D5F80C65FA
:1045300026F07006C5F80C6502E04D79012D0DD00E
:104540004E697EB10D8977197F1EB7FBF5F7BFB2B3
:104550009F4208D92D021F460D6104E02146FFF756
:1045600067FE6EE00127CB781BB10B897B430B61A3
:1045700000E00E614FF0C0468B7A6FF0604C0D6921
:104580000CEAC74706EA437600EB4413C5F312056D
:104590003D433543C3F8105512B1CC68C3F81445F8
:1045A000D0F80844D3F8005525F00055C3F800555D
:1045B00044F30004D3F80055641C45EA4474C3F87E
:1045C0000045D3F8004524F080440094CC78002CBA
:1045D000009C02D044F4004401E024F4004444F080
:1045E00000440094C3F800455ABBCA784ABB4A69E4
:1045F0003AB3CB7933B1012B0FD0022B02D0032B6E
:1046000017D10AE0C36AD21C9BB2C2F38F02934255
:104610000FD2826942F020020AE0D0F81034D21C96
:104620009BB2C2F38F02934203D2826942F080624E
:104630008261002200928B8A4A78C9689BB200F09E
:104640003BF90020F8BD00002DE9F0410026174697
:1046500004463546DDF81880C0F8006E806B20F403
:104660000010A063E06BC00501D5012B04D0D4F885
:10467000000420F0040103E0D4F8000440F0040139
:104680002046C4F800141021FFF71EFE00B10125DA
:104690002046FFF7FBFD00B101254FF0FF31002060
:1046A00007E000BF04EB4012C2F80815C2F80C6521
:1046B000401C8742F6D8A6616161E06BC00504D555
:1046C0000C494FF400720C4802E00C4980220C485F
:1046D0006262A162C4F80001B8F1000F03D1A069C1
:1046E00040F01000A061A06906490843A061284677
:1046F000BDE8F081000200010003E00080006000DE
:10470000E0004000080020A3D0F80024012901F0B7
:10471000030322F00302C0F80024D0F8002442EA88
:104720000302C0F8002402D0022903D006E04BF6B1
:10473000803101E041F27071C0F80414002070472C
:1047400000EB4110D0F80815D0F80C050840704770
:1047500041698069084070470346084630B59408AF
:1047600002F00301002203F5805303E01D68521C90
:1047700040F8045BA242F9D300290CD01C68002346
:10478000491EDD00090403F10103090C24FA05F2B6
:1047900000F8012BF4D130BD38B50446D0F8400400
:1047A00020F02E00009040F48070C4F84004642093
:1047B00004F58864FBF7B2FF009820F48070206055
:1047C0000A20FBF7ABFF002038BD70B50446C06877
:1047D00001294FF0000520F0C040E06001D079B120
:1047E00020E0E06840F00050E0600120FBF796FF19
:1047F00060696D1C10F0010F10D1322DF5D30DE062
:10480000E06840F08040E0600120FBF787FF6069CE
:104810006D1C10F0010F01D0322DF5D3322D01D0D7
:10482000002070BD012070BD38B504460020009006
:104830000546A06820F00100A06010212046FFF787
:1048400043FD00B101252046FFF720FD00B1012501
:104850005FF0000004EB4011D1F80025401C0F2848
:1048600022F0802242F08042C1F80025F2D90020D7
:104870004FF47A7304EB4011D1F8002522F4004282
:1048800042F04042C1F80025009A521C00929A4220
:1048900003D8D1F80025002AF6DB401C0F28E9D9FF
:1048A0004FF0FF30C4F814046061A06840F00100CC
:1048B000A060284638BD000010B5029C74B900EB1A
:1048C0000232DB1C00209B0802F5805204E000BF8E
:1048D00051F8044B1460401C9842F9D3002010BDDD
:1048E000FEE7090700284FEA116104DB00F1E02030
:1048F00080F80014704700F00F0000F1E02080F80D
:10490000141D704702E008C8121F08C1002AFAD11E
:1049100070477047002001E001C1121F002AFBD13F
:104920007047000010B504460022501EE27020635C
:10493000204601F0CCFA08B1042010BD04F2322068
:1049400001F0FCF9A0F52A41553901D0032010BD32
:1049500094F83400E92805D0EB2814D194F83600F7
:10496000902810D104F16A0001F0DDF90749B1EB9C
:10497000002F06D004F1860001F0D5F904498842E1
:1049800001D1002010BD022010BD0000004641549E
:104990004641543300E0401C02780AB18A42FAD101
:1049A000D0B27047F0B5154D0022134605EB021446
:1049B00026685EB10768BE4209D166688768BE4254
:1049C00005D1A4684669B44204D000E00123521C1A
:1049D000022AEBD3022A01D069B904E04BB90229BB
:1049E00007D01220F0BD05EB02108089B0F5807F62
:1049F00001D00020F0BD1020F0BD000038110020D3
:104A000030B5064B0024214603EB011215688542A0
:104A100000D11460491C0229F6D330BD38110020A2
:104A2000C26A490A00684089B1FBF0F0121D02CA4F
:104A300019B1884203D3401AF8E700207047116883
:104A4000084470478269891E921E8A4201D800205C
:104A50007047C26A408901FB002070472DE9F05F72
:104A60000C46824601F11A0001F068F978BB207803
:104A700001270026DFF8609000F03F004FF6FF7B33
:104A8000401E00EB800101EBC00500BF19F80600D5
:104A9000204401F053F980466FB1FF2D17D200F08A
:104AA00061FE07463AF815006D1C00F05BFE874278
:104AB0000DD1474601E0D84509D1761C0D2EE5D32E
:104AC0002078400606D52FB13AF8150010B1002025
:104AD000BDE8F09F0120FBE7746200082DE9F0417A
:104AE00005680F00804606D001F04AF8022809D276
:104AF0000120BDE8F0812E6916B1A869B04207D83F
:104B0000012605E0411CF4D0A9698142F1D83E4656
:104B10003446A869641CA04203D8022E4FF0020458
:104B20000AD32146404601F02BF838B10128E0D0E5
:104B3000411CDED0B442ECD10020DAE74FF0FF3662
:104B400021463246284601F0DBF930B957B12246FA
:104B50003946284601F0D4F920B101280FD00124AC
:104B60002046C6E7D5E905012C61891E884201D897
:104B7000401E6861287940F001002871F0E7344652
:104B8000EEE700002DE9F84F8846016800248246D0
:104B90002546D8F80060CF68705D6D1C20281AD3B8
:104BA0002F2813D05C2811D0FF2C38D2012100F01F
:104BB000B7FD5FEA000932D0B9F1800F12D2014689
:104BC0006BA0FFF7E7FE50BB0CE06D1C715D2F2959
:104BD000FBD05C29F9D07119C8F80010202805D243
:104BE00004250EE027F81490641CD5E7002508E0A2
:104BF00007EB440030F8020C202801D02E2802D107
:104C0000641E002CF4D1002027F814003CB10B22C4
:104C100020210AF1240001F053F9002603E00620C8
:104C2000BDE8F88F761C37F816002028FAD02E2819
:104C3000F8D01EB145F0030500E0641E2CB107EB6F
:104C4000440030F8020C2E28F7D14FF000094FF045
:104C5000080BCDF8009000BF37F8160006F10106EA
:104C60005FEA000824D0B8F1200F04D0B8F12E0F6D
:104C700004D1A64202D045F00305EDE7009858455F
:104C800001D2A64219D1BBF10B0F0FD0A64201D021
:104C900045F003050CD84FEA896126464FF008001D
:104CA0004FF00B0B4FEA11690090D5E745F0030573
:104CB0009AF82400E52836D038E0B8F1800F404655
:104CC00010D3002100F02CFD5FEA000805D02B492D
:104CD00001EB080010F8800C8046B8F1000F45F099
:104CE000020504D0014626A0FFF754FE18B15F204C
:104CF00045F003050EE0A8F14100192802D849F05B
:104D0000020908E0A8F16100192804D8413080B2F6
:104D100049F001098046009A00995244491C0091CB
:104D200082F8248098E705218AF82410BBF1080F47
:104D300003D14FEA89604FEA1069C9F38100032863
:104D400003D06FEA0901890701D145F00205A907DF
:104D500009D409F00301012901D145F0100501280A
:104D600001D145F008058AF82F50002058E70000CF
:104D7000222A3A3C3E3F7C7F00000000F46100089C
:104D80002B2C3B3D5B5D0000401E022812D20A49DD
:104D900001EB00118889B0F5807F05D008B1401E75
:104DA00080B2888110B103E00020FAE7002008609B
:104DB0000020704702207047381100202DE9F0478D
:104DC000D0F800900021044600F0CEF900285CD114
:104DD000471E2763FF25A846E169484601F077F89A
:104DE000060051D1216A087850B1CA7AE52802F04C
:104DF0003F02A27140D0130704D50F2A3CD105E031
:104E0000042641E00F2A01D0E5B120E094F82F20DC
:104E1000520633D4420606D591F80D8000F0BF004B
:104E2000636905462363A84209D14A7B424506D1FE
:104E3000D9F80C00FFF712FE08B16D1E00E0FF2547
:104E4000EDB21BE0084601F02DF940451CD094F866
:104E50002F00C00710D1D4F820100B2204F1240039
:104E6000521E11F8013B10F8015BA3EB050302D0C1
:104E7000002BF5D000E03BB1FF2527630021204641
:104E800000F006F80600A7D03046BDE8F087000025
:104E90002DE9F04705464769C069894620372C68E7
:104EA00010B1B7F5001F02D30420BDE8F087F90563
:104EB00060D1A969401C4FF00008E86129B1608900
:104EC000401E10EA572F05D054E02089B0EB571F41
:104ED0001DD94FE0284600F053FE012806461BD995
:104EE000701C33D0A069B0423ED8B9F1000F0ED08B
:104EF000A9692846FFF7F2FD06000BD0012E0BD062
:104F0000701C23D0204601F01FF9F8B906E0C5F85F
:104F10001C80C9E70720C8E70220C6E700214FF43C
:104F2000007204F1340000F0CBFF4FF0000831466E
:104F30002046FFF787FD4FF0010920630DE000BF19
:104F4000204684F8039001F0FFF808B10120ACE797
:104F5000216B08F10108491C216361894145EFD8A3
:104F6000216BA1EB0800206331462046AE61FFF7BC
:104F700069FDE861C7F3080020446F61343028629E
:104F8000002092E72DE9F04F044690F82F008FB0F3
:104F900010F0A00FD4F8009003D006200FB0BDE8A9
:104FA000F08FD9F80C00002500E06D1C30F81510CA
:104FB0000029FAD10C2204F12401029108A800F082
:104FC00075FF9DF82B00C00719D0402084F82F00F2
:104FD0000126D9F80C20029808A9334600F090FD6C
:104FE0002046FFF7EBFE10B9761C642EF1D3642E39
:104FF0000FD00428D2D19DF82B0084F82F009DF803
:105000002B00800707D50D200C35B5FBF0F56D1C86
:1050100002E00720C2E7012527680021204600F0B2
:10502000A3F888B90026E169384600F050FF58B966
:10503000206A0078E5280AD048B1002620460121E0
:10504000FFF726FF0028EED0042812D012E0761CCD
:105050002846AE42F2D1451E0B9567D06169684281
:1050600001EB4011204600F07FF85FEA000803D012
:1050700076E00720804673E0029801F013F84FF6BF
:10508000FF7B0C90E169484600F021FF5FEA0008D1
:1050900066D10B990F23D4F82080C9B20391D9F8B7
:1050A0000C100C980591002188F80D0008F11A00E9
:1050B00088F80B3088F80C1000F0F0FF03990027F7
:1050C000DFF8A0A0491E01EB810202EBC10601E05E
:1050D0005D4503D0059830F81650761C1AF8071075
:1050E00001EB0800294600F0D9FF05B95D467F1C99
:1050F0000D2FEDD35D4505D0059830F8160008B1A9
:10510000039803E0039840F04000039088F8000003
:105110000120002189F803002046FFF7B9FE5FEA6D
:1051200000081DD10B98401E0B90ABD1E169484699
:1051300000F0CDFE5FEA000812D1206A2022002193
:1051400000F0BEFE206A0B22029900F0AFFE226A38
:10515000012094F82F1001F01801117389F8030051
:1051600040461BE7746200082DE9F0410768B1F57D
:10517000001F0E46054636D2F00634D1AC686E618B
:1051800024B93878032805D3BC6A1CB178894FEA62
:10519000402812E03889B0EB561F24D9B86A12E0D3
:1051A000284600F0EDFC0446401C1AD0022C1AD30D
:1051B000B869A04217D9A6EB080621464645EFD2AA
:1051C0003846FFF73FFCC5E9064060B100EB5622C8
:1051D000C6F30801C8193430C5E907200020BDE82E
:1051E000F0810120FBE70220F9E7000008490022D6
:1051F00010B50B5C4BB901220A5401EB8002084444
:105200005168007B096888470246104610BD0000BF
:1052100028110020044B30B403EB80041844636869
:10522000007B1B6930BC18472811002030B4054CA6
:1052300004EB800520446C68007BA468A44630BC65
:105240006047000028110020034901EB8002084458
:105250005168007B496808472811002030B4054C8C
:1052600004EB800520446C68007BE468A44630BCF5
:10527000604700002811002038B5044600F008FA05
:1052800000280CD16946204600F087FF002806D18F
:105290002069FFF779FD002801D10021216038BD88
:1052A0002DE9F74181B0904602980090684600F0E1
:1052B000C8FC040003D50B2004B0BDE8F0810D4EFE
:1052C000002756F824501DB12846FFF799FB2F7090
:1052D0000198002800D0077046F8240002D0B8F1E9
:1052E000010F01D00020E7E7002201A902A800F089
:1052F00079FAE1E7600000202DE9F74F050094B04E
:105300000BD002F03F06694615A8324600F06AFA53
:1053100004004FF0000904D003E1092017B0BDE8F4
:10532000F08F00984FF4007B0290584600F016FA78
:105330005FEA000809D0009902A8C1F80C8015990D
:1053400000F07CFB040002D010E01120E6E79DF89D
:105350003700000601D5062408E0700801D00121BD
:1053600000E0002102A8FFF71DFB044616F01C0F09
:105370005FD04FF0010AC4B1042C10D16E49002057
:1053800002E0401C022804D201EB00121268002A3D
:10539000F7D1022807D002A8FFF7F4FD044646F033
:1053A00008066CB1A4E01224A2E09DF80E0010F0F3
:1053B000110F01D007249BE0700701D50824ADE050
:1053C000300745D500F03BFC07460A9839460E30B9
:1053D00000F05CFE0A983946163000F057FE0A9934
:1053E0002020C8720A99009800F08AFC0A990022CD
:1053F0000746009800F036FE0A9800211C3000F0A5
:1054000045FE009880F803A007B3D0F830A0002232
:1054100002A8394600F0ECFD040069D1009851461D
:1054200000F055FD04000098A7F1010707610BD0BB
:105430005EE0ECBB9DF80E00C10601D5042457E0E8
:10544000B10701D5C007B5D1300701D546F04006F8
:105450000098006B68620A98A862700801D0012168
:1054600000E0002102A800F00BFC286158B30A9963
:10547000009800F045FCA8600A981C3000F053FC2E
:10548000C5F82C900146E96005F1300000995A46B4
:10549000296082460099C988A98000212E7585F867
:1054A0001590C5F82090C5F8189000F009FD00E0AF
:1054B0001EE0B0063CD5EE68BEB3AE610098A968A8
:1054C0004089470210E0022412E0284600F058FB11
:1054D0000128014600D80224481C02D0F61B1CB14A
:1054E00004E00124F61B01E0BE42EED8E96124B1DC
:1054F000404600F035F9A4B915E0F00518D0009841
:10550000FFF7A0FA90B100EB56222A62009801231F
:1055100051464078FFF78AFE38B10124404600F03A
:105520001FF9C5F800902046F8E601E00224F5E7EF
:10553000404600F015F9F6E7381100202DE9F04F4C
:1055400089B01546002299460446884603A91A6088
:1055500000F023FE002812D1607D00280FD1207DAD
:10556000C0070BD0A2690127E16804F1300B4FF0AE
:10557000020A881A854200D9054684E0072009B04E
:10558000BDE8F08FA169C80565D103984089401E28
:1055900010EA512611D129B1E06A28B12046FFF75F
:1055A0003FFA05E0A06803E0E169204600F0E8FA70
:1055B00002281BD3411C49D0E061E1690398FFF741
:1055C00041FA98B1690A04913044019025D00398BA
:1055D000721841898A4201D9891B04914078414659
:1055E000049B019AFFF722FE80BB03E0022084F8AF
:1055F00015A0C4E7207D00060CD5216A0198081A81
:105600000499884206D208EB402059464FF40072B4
:1056100000F04CFC049846022BE0226A824218D02B
:10562000207D00060AD50398012359464078FFF7EC
:1056300015FE58B9207D00F07F00207503980123E6
:10564000019A59464078FFF7F1FD10B101206775C6
:1056500095E701982062208BC0F30800C0F5007622
:10566000AE4200D92E46011932463031404600F094
:105670001DFCA169AD1BB0448819A061D9F80000D8
:105680008119C9F80010002D7FF47CAF002076E767
:10569000F8B50446694600F080FD00280ED1217D52
:1056A0004A060BD508060ED500980123226A04F19C
:1056B00030014078FFF7D2FD08B10120F8BD207D10
:1056C00000F07F00207500F0BAFA616A0646009883
:1056D00000F0FDFB0028F1D1A56A2946E87A40F0E8
:1056E0002000E872A268206800F0BCFCE16805F1C7
:1056F0001C0000F0CBFC05F11600314600F0C6FCA2
:10570000002105F1120000F0C9FC00980121C170D0
:1057100000F0D6FC217D01F0BF012175F8BD00002D
:10572000802804D30C4A51B1FF2801D900207047CA
:1057300002EB4000A0F58050B0F8000F7047002148
:1057400032F81130834203D0491C89B28029F7D343
:105750008031C8B2704700009E62000800F070BB44
:1057600000F0A6B930B5B0F5805F01D21B4900E06A
:105770001B4931F8022B002A15D0904213D331F87F
:10578000024B52FA84F5230A8542E4B221D9092B4F
:1057900009D2DFE803F005090E11131517191B00D4
:1057A000801A31F8100030BD811A01F00101401A51
:1057B00000E0103880B230BD2038FBE73038F9E720
:1057C0001A38F7E70830F5E75038F3E7A0F5E3506B
:1057D000F0E7002BCDD101EB4401CAE79E6300083E
:1057E000906500082DE9FF41002790460E460F60A6
:1057F00000F027FA050003D50B2004B0BDE8F081C6
:105800008B4850F825409CB1346008F0FE062078A3
:1058100020B16078FFF718FDC1070BD02770B8469C
:10582000E8B26070FFF7E2FCC10708D00320E4E7AC
:105830000C20E2E70EB1400704D40020DDE71EB1E2
:10584000400701D50A20D8E7002620463146FFF759
:1058500069F8022822D100254FEA0D0704EB051054
:1058600090F8F61100F5F97019B1083000F05BFA04
:1058700000E0002047F825006D1C042DEED3002524
:1058800057F8256036B131462046FFF74BF802281D
:1058900001D203E003206D1C042DF1D3042809D0AC
:1058A00002286FD204F13F0000F048FAB0F5007F03
:1058B00068D101E00120A0E704F14A0000F03EFABF
:1058C000010004D104F1580000F02DFA014694F8CB
:1058D0004450E161012DA57001D0022D52D14D43FC
:1058E00094F841006081E8B3411E08424AD104F1B6
:1058F000450000F023FA0107208143D104F147005D
:1059000000F01CFA070004D104F1540000F00BFA77
:10591000074604F1420000F011FA020032D0238958
:10592000501900EB13118F422CD360897F1AB7FBFB
:10593000F0F0B8B103274FF6F57C604500D8022798
:1059400040F6F57C604500D801273244801C314484
:10595000E162A061032FC4E9086215D013B15119A7
:10596000022F00E00EE0A1621FD000F0010100EB69
:10597000400001EB500000BFE16900F2FF10B1EB05
:10598000502F14D20D2038E704F15E0000F0D6F954
:105990000028F7D120890028F4D104F1600000F03C
:1059A000C2F9A169A0628800E6E74000E4E74FF091
:1059B000FF31616180202161032F20712CD104F11E
:1059C000640000F0BBF9012826D1711C204600F0CC
:1059D0007EFA08BB04F2322084F8048000F0AEF9AD
:1059E000A0F52A41553917D104F1340000F09BF994
:1059F0001049884210D104F5067000F094F90E4960
:105A0000884209D104F5077000F08DF9606104F552
:105A1000087000F088F9206105492770091F08887F
:105A2000401C0880E0802046FEF7EAFF05E7000002
:105A300060000020525261417272416173B5056885
:105A40000446019801E0401C019001782F29FAD00A
:105A50005C29F8D00021A16001980078202806D2A6
:105A6000802084F82F002046FFF77EFB7CBD01A933
:105A70002046FFF787F80028F8D12046FFF79EF967
:105A800094F82F1028B10428F0D14907EED405204E
:105A90007CBD4907FCD4A079C006F8D5A08AC0F324
:105AA000080041192846343100F02AF9A060DEE7E9
:105AB00010B5002821D0114B0022001F196803E007
:105AC000814203D80A4649680029F9D152B11368C6
:105AD000841A9C4204D1006818441060104602E009
